:020000040000FA
:20000000C0070000D1060000D1000000B106000000000000000000000000000000000000BA
:20002000000000000000000000000000510700000000000000000000DB000000E5000000A8
:20004000EF000000F9000000030100000D01000017010000210100002B010000350100000A
:200060003F01000049010000530100005D01000067010000710100007B0100008501000068
:200080008F01000099010000A3010000AD010000B7010000C1010000CB010000D5010000C8
:2000A000DF010000E9010000F3010000FD01000007020000110200001B0200002502000024
:2000C0001FB5C046C04600F0EFFA04B00FB41FBD08205A49096809580847382057490968BF
:2000E000095808473C2055490968095808474020524909680958084744205049096809584A
:20010000084748204D490968095808474C204B49096809580847502048490968095808472E
:2001200054204649096809580847582043490968095808475C2041490968095808476020CF
:200140003E4909680958084764203C49096809580847682039490968095808476C20374996
:20016000096809580847702034490968095808477420324909680958084778202F4909687F
:20018000095808477C202D4909680958084780202A49096809580847842028490968095861
:2001A0000847882025490968095808478C2023490968095808479020204909680958084746
:2001C00094201E4909680958084798201B490968095808479C201949096809580847A020A7
:2001E0001649096809580847A4201449096809580847A8201149096809580847AC200F49D6
:20020000096809580847B0200C49096809580847B4200A49096809580847B8200749096896
:2002200009580847BC200549096809580847000003480449024A034B7047000000000020BA
:20024000C0070000C00700000122D84B5A6000BFD74A1268002AFBD0016000BFD44A126809
:20026000002AFBD00022D14B5A6000BFD04A1268002AFBD07047F0B505460E4617460024CD
:2002800006E0A200B158A2005019FFF7DDFF641CBC42F6D30020F0BD0120C043C549086042
:2002A0004010486070470146012292040868904201D9102070470020FCE7F0B505460C4647
:2002C0001646002706E028462168FFF7BDFF2D1D241D7F1CB742F6D3F0BD70B505460C46B5
:2002E0002E460BE0304600F075F9FF2C01D8002401E0FF3C013C012080023618002CF1D16B
:2003000070BD0146012292044868904201D909207047A9484069401C01D10F20F8E700207E
:20032000F6E7FEB504462068030000F037FA05042B4249598B00201DFFF7E3FF0546002D07
:2003400001D02846FEBDFFF7A7FF0120C00200F041F9042221469948FFF78DFF002801D011
:200360000320EFE708222146944800F06DF9002806D1002192480068FFF766FF00F00CF90F
:200380000320DFE7A768E6686068019031463846FFF7A3FF324638460199FFF78EFFB2006C
:2003A0003846019900F050F9002800D1CAE70320C8E700F0E3F9834800688349086041E01C
:2003C00060680190E668A0680090B2000099019800F03AF90746002F00D1B3E70E20B1E72A
:2003E000201DFFF760FF0546002D01D02846A9E76068002807D1FFF74FFF0320800200F083
:20040000E9F800F0C9F8FFF747FF0120C00200F0E1F8042221466948FFF72DFF002801D009
:2004200003208FE708222146644800F00DF9002806D1002162480068FFF706FF00F0ACF82F
:2004400003207FE700BF00207CE770B505460C46182D04D12068FFF764FF206002E0012091
:20046000206000BF00BF70BDF0B589B05248406903905248806881000398081802900398B2
:20048000000B01900121090302984018401E000B00900124002520462946019A00F0C4F841
:2004A0000022401E9141079106900126002730463946009A00F0B8F80022401E9141059157
:2004C0000490049BDB43059AD243069818430799114307910690374906980860079848602F
:2004E00009B0F0BD70B534484469344885684668AA003146204600F0A7F8002801D0002002
:2005000070BD0120FCE72D484068002801D0012000E000200546FFF7E5FF002807D0FFF759
:20052000BBFE0320800200F055F800F035F8FFF79BFF002D0ED0204846692048846847684E
:2005400021463046FFF7C9FE224639463046FFF7B4FE00BF00F020F810B5184844681A4802
:200560000460204600F0DCF810BD154800680068401C01D100BFFEE710480068002802D067
:20058000042806D101E0FFF7BEFFFFF7E5FF00BFFEE700BF00BFFEE7BFF34F8F0B480C49AB
:2005A000C860BFF34F8F00BFFEE7000000E5014000E4014000060040001000100008000026
:2005C000B8070000BC070000000000200400FA0500ED00E010B50146104B1A68084602234D
:2005E0000F4C636000BF0F4B1B68002BFBD0531C04D0904202D20A4B186101E0084B986068
:2006000000BF084B1B68002BFBD00023044C636000BF044B1B68002BFBD010BD00100010A5
:2006200000E5014000E4014010B5202A04DB0146203A9140002010BD914020239C1A03460F
:20064000E3401943904010BD034610B50B439B070FD1042A0DD308C810C9121FA342F8D00B
:2006600018BA21BA884201D9012010BD0020C04310BD002A03D0D30703D0521C07E000202C
:2006800010BD03780C78401C491C1B1B07D103780C78401C491C1B1B01D1921EF1D1184627
:2006A00010BD70477047704710B500F007F810BD014B1B68DB6818470000002019481A4972
:2006C0007047FFF7FBFFFFF7FBFC00BD20BFFDE71649174C24688C420BD1164B1B6899424F
:2006E0000CD1154B154A1360186810498842EDD00AE0134880F30888124B18470F4A1360BB
:2007000018680A498842E1D080F308880E49884204DD0E48026802210A4302605B681847D2
:200720000346DFE7C0070000C0070000FFFFFFFF000C0000141000100010000000000020B0
:20074000000400206B05000000200020240500400D48704502D1EFF3098101E0EFF30881C7
:20076000886902380078182802D1C046074A1047074A12682C3212681047000000B5054B16
:20078000054A9B58984700BDFDFFFFFF4B04000000000020001000000400000030B4744660
:2007A000641E2578641CAB4204D3635D5B00E31830BC18471D46F8E7000C00000010000017
:20100000901D002079500100ED3D0000DF4F010000000000000000000000000000000000E0
:20102000000000000000000000000000E95001000000000000000000ED3D0000ED3D000022
:20104000555101005B510100ED3D0000ED3D0000ED3D0000ED3D0000ED3D0000ED3D000040
:2010600061510100ED3D0000ED3D000067510100ED3D00006D510100735101007951010037
:20108000ED3D0000ED3D0000ED3D0000ED3D0000ED3D0000ED3D0000ED3D0000ED3D000000
:2010A0007F51010085510100ED3D0000ED3D0000ED3D0000ED3D0000ED3D0000ED3D00008C
:2010C00000F002F813F0B9FF0CA030C8083824182D18A246671EAB4654465D46AC4201D1AB
:2010E00013F0ABFF7E460F3E0FCCB6460126334200D0FB1AA246AB463343184744410100A6
:2011000074410100103A02D378C878C1FAD8520701D330C830C101D504680C607047000034
:201120000023002400250026103A01D378C1FBD8520700D330C100D50B6070471FB5C04605
:20114000C04613F01BFF04B00FB41FBD826902498161024810447047611100000100000039
:2011600001B41EB400B510F02FFC01B40198864601BC01B01EBD0000F0B440464946524654
:201180005B460FB402A0013001B50648004700BF01BC86460FBC8046894692469B46F0BCC0
:2011A00070470000C1100000401E00BF00BF00BF00BF00BF00BF00BF00BF00BF00BF00BF14
:2011C00000BFF1D17047000070B505460C46164602E00FCC0FC5103E102EFAD2082E02D3C5
:2011E00003CC03C5083E042E07D301CC01C5361F03E021782970641C6D1C761EF9D270BD74
:201200008307FF22DB0E9A408907090E994000280BDA0007000F0838830828489B001B18B4
:20122000D86990430843D8617047830824489B001B181868904308431860704710B50446BE
:2012400000210120FFF7DCFF00211820FFF7D8FF00210B20FFF7D4FF02211920FFF7D0FF1F
:2012600002210D20FFF7CCFF02210E20FFF7C8FF02210F20FFF7C4FF0221C81FFFF7C0FF85
:2012800003211620FFF7BCFF03211520FFF7B8FF204600F019F8002010BD4F210180704741
:2012A00010B500F03AF810BD0648704710B500F035F810BD704770477047000000ED00E0D4
:2012C00000E400E003F900C330B50446374D95B007202870A81CFFF7E0FF5920A88034481E
:2012E00001F020FC0546072000F0DCF929462F4800F08CFA641E072C0AD830216846017047
:20130000847001F0DDFA002802D009A800F0DDFC284601F083FE15B030BD7047F8B5234E36
:201320000446B61E307801270D46002807D0204660380B2808D8204601F096FB2BE0602CDD
:20134000F9D01C480860F8BD20466C38032803D8204601F0CBFB1EE0204670381F2803D8E8
:20136000204600F037F816E0204690380F2803D8204600F0BBF80EE02046A0380F2803D86B
:20138000204600F023F906E02046B0380F2804D8204600F000F9286000E02F60602CD2D11F
:2013A00028680028CFD13770F8BD00001A000020C33300000130000070477047704770473C
:2013C000704770477047704710B5012801D100F042FA10BD10B57038030013F0EBFE150CFB
:2013E00012161E22252C33383D41454950555C646C747B8085004A680878114603F081FFFC
:2014000010BD086803F0F9FF10BD0C790B7B8A680868214604F005F810BD086804F07EF86B
:2014200010BD03F05BFC10BD08884A6880B2114604F043FA10BD0A790888114680B204F06F
:2014400091FA10BD087840B204F09CFA10BD088880B204F0B8FA10BD086804F0C7FA10BD44
:20146000086804F0DFFA10BD086804F00AFB10BD088982B209C9194604F034FB10BD05C978
:20148000114604F082FB10BD08884A6880B2114604F0A0FB10BD0B7908888A6880B21946F9
:2014A00004F0FDFB10BD0B7908888A6880B2194604F0B3FC10BD08884B688A6880B21946A6
:2014C00004F0F3FC10BD08884A6880B2114604F03EFD10BD088880B204F056FD10BD08882F
:2014E00080B204F076FD10BD012010BD10B59038030013F05FFE09060F161D242C363F464C
:201500004E0088888A6883B20888194680B205F093F910BD08884A6880B2114605F0E9F935
:2015200010BD08884A6880B2114605F02DFA10BD08884A6880B2114605F063FA10BD0888B0
:201540004B688A6880B2194605F094FA10BD088982B2888883B20888194680B205F0C9FA22
:2015600010BD08894B6882B20888194680B205F0FEFA10BD08884A6880B2114605F02EFB62
:2015800010BD888882B20888114680B205F0C2FB10BD012010BD10B5B02805D0B12808D091
:2015A000B2280BD0012010BD088880B205F0A6FE10BD088880B205F0D1FE10BD08884B68CA
:2015C0008A6880B2194605F0DAFE10BD10B5A038030013F0EFFD0B070E172028323C434DE2
:2015E000545D65004B6808788A68194607F017FA10BD88888A6883B20888194680B207F02D
:2016000023FA10BD08884C68CB688A6880B2214607F02AFA10BD08884B688A6880B2194630
:2016200007F044FA10BD8888CB6884B208888A6880B2214607F064FA10BD8888CB6884B279
:2016400008888A6880B2214607F089FA10BD08884A6880B2114607F0BDFA10BD088982B21D
:20166000888883B20888194680B207F0BDFA10BD08884A6880B2114607F0DAFA10BD088995
:201680004B6882B20888194680B207F057FB10BD08884B688A6880B2194607F014FC10BD92
:2016A000012010BD10B507F0FAFC0FF0A7FF00F007F810F0F5F808F0F5F908F081F910BDE4
:2016C00001202B49C00308602A490020087003202949800288607047F8B5264D044628787F
:2016E000A04207D0002C05D0002803D023A14D2013F06FFC2878A04213D02C70032500234A
:201700002349AD021C48002C27D01B4A214E4032214F012C06D0022C13D018A16E2013F013
:2017200058FCF8BD0B6002230B604E6185601B4911625762091D91621749091DD16245600A
:20174000F8BD0B6003230B604E610121C9028160134B9362D7624160F8BD0B600B608560BE
:20176000F8BD10B505A1772013F033FC10BD000080E100E02000002000F501407372635C58
:2017800068616C5F63636D5F6161722E6300000000F500407C01002000F00040001100400B
:2017A000488100401CB50446002069460870204609F0F6F86946204608F0B4FF002803D1B5
:2017C000FBA1B62013F005FC01A9204608F009FF002803D1F6A1BB2013F0FBFB68460078F6
:2017E0001CBD70B5F74D002428462C7620308471C47113F0EDFC284640380470203084736C
:20180000847484762C74AC7070BDEAE710B50C46ED4982888A8042884A80007808700846E9
:201820000A38847008F0B3FEFFF7DBFF20460AF02FFAE44AE0321146383908461446813807
:2018400009F020F92146E0480BF0C2FC09F09FF813F0BEFC10BD10B50120FFF7ADFD10BDC1
:20186000F8B509F083FDD84DD64C0A3D022802D0207C00287CD0207E0026102819D1A078AA
:20188000002803D0CAA1D14813F0A3FBCD48E838817A89070DD50146267160398989E1809C
:2018A000C17A217281896181C089A0810120A0702676C44F203FB87C002859D1C448694684
:2018C000808908F02FFF002805D06946687809784018687004E0BD48B5A11D3013F079FB99
:2018E000207C002838D0BA488189FF300930406D8089814204D0B548ADA1223013F069FB57
:20190000B348808908F0B4FF002804D1AF48A8A1283013F05EFB09F022F800281CD0AC480C
:201920008089FFF73FFF697840186870A5484038416D20318A7C012A0DD1A54A3E77928927
:20194000C287C87C20700120B876207E102801D0282800D1267626746978002908D09C4857
:201960008289FF300930C28601870120B8746E7009F0CCFC002805D1207C002802D0A87884
:2019800001F0F4F8F8BDF8B50F460446FFF768FF8C4D403D28788B4E002813D0002F10D122
:2019A000307E002804D0FF2081A1C63013F011FB2C22A91C204613F06FF90E202070002075
:2019C00028708FE07F4D203DA87B002818D0002FF7D1307E102808D0282806D0002804D0CD
:2019E000FF2073A1D23013F0F4FA0120E070E87BA070287C60700F2020700020A87371E01E
:201A00000121204608F0E4FF002807D0307C002851D13946204608F0DBFFF8BDA97C69482C
:201A20000C38009068480A38002913D00178052910D2002F56D1491C0170002666700D20F6
:201A40002070012028750622A01C009913F024F9AE7447E05C4800210A380170B07800288A
:201A600014D0002F3ED1307E002803D050A1594813F0AFFA002565700120524920700A22EB
:201A8000091DA01C13F008F9B5702BE0394620460BF008FB002825D1A87C002805D0002FDF
:201AA00020D149480A380178C5E7A87E002802D0307C002801D00020F8BD002F12D1307EE3
:201AC000002804D08F203AA1800013F082FA002666700A203B4920700622091FA01C13F038
:201AE000DBF8AE760120F8BD10B53648017E002908D1007C012805D001210020FFF743FF61
:201B0000002801D0072010BD012010BD10B501240AF006F90443FFF7E7FF044308F038FF6E
:201B200001462143084610BDF8B51D4614460E4608F077FD002807D0684608F07DFD00286E
:201B400003D0002C07D101E00120F8BD9B2018A1800013F03EFA08F01BFDA04204D21D489B
:201B600013A1583013F035FA009808F089F93146009808F097F9E2B22946009808F04EFB72
:201B800008F06CFD002804D19F2009A1800013F020FA08F0FFFE0E4800244030417C00291C
:201BA00002D044740AF0A7F90948C480CCE700007372635C6C6C5F6374726C2E73302E63C7
:201BC00000000000200300202C00002082060000D80100201502000010B50179002908D09E
:201BE00001290BD0FF20FE49043013F0F2F9002010BD831D42880488022103E04288048819
:201C0000831D01212046FFF78FFF10BDF8B51F4615460E46044609F0A9FB022803D0F1486D
:201C2000007C00281FD0F0488089208008F020FE002803D1EA49ED4813F0CBF90524684618
:201C400008F021FE00280ED0009808F063F93070022809D0012807D008F055FE641E2406E1
:201C6000240EECD10020F8BD3946009808F0EEFA2880002804D1AF20D949800013F0A9F9EE
:201C800008F041FE002804D1D848D549193013F0A0F90120F8BD38B50446831D821C6946F3
:201CA000FFF7B4FF00280DD00020607168460078012808D0022806D0FF20C949253013F0D5
:201CC00088F9012038BD2071FBE700215BE670B5C44C0546403C2078002803D1C148007E81
:201CE000002804D0C120BE49C00013F072F9287808F085FF28780BF0C1FB0020207101208D
:201D000060713921E170207070BD70B5B54D0446403D2878002803D1B248007E002804D08C
:201D20005F20AF49000113F054F9AF4E2188B089884203D109F01AFB022807D00220287194
:201D4000012068713821E970287070BD7F207076A548E17820304174A17801740020EEE7BF
:201D600010B5A04C403C207800280BD19D48007E002807D109F0FAFA032803D009F0FAFA5F
:201D8000032804D199489649653013F022F9954900202031C8712071012060713A21E17019
:201DA000207010BD70B58F4C0646403C207800280BD18C48007E002807D109F0D7FA03281B
:201DC00003D009F0D7FA032804D1884884497B3013F0FFF8834D2035E87908280CD2E8792F
:201DE0001022000100196830314600F025FEE879401CE871002000E00720207101206071B5
:201E00003B21E170207070BDF8B5764D0446403D2878002803D17348007E002803D0704998
:201E2000734813F0D6F8704F2188B889884203D109F09CFA022801D0022022E03E8C64886B
:201E40007200788CF98B521C944217D3694A51439200504312F09AFF401EFF2180B2F5317D
:201E6000884200D90846844200D22046711C401C12F08CFF761C7043401E86B2FE85EE8031
:201E800000202871012068713C21E9702870F8BDF8B5544C0546403C2078002803D151484B
:201EA000007E002804D052484D492C3813F091F8A878002801D0012804D1A888FF21F531FB
:201EC000884204D959204649000113F082F8464E2988B089884203D109F048FA022807D07D
:201EE00002202071012060713621E1702070F8BD3D48002720308772A988B185012131762B
:201F0000A978012900D00021817237484030407C002801D009F0EFFF2771E3E770B5314C03
:201F20000546403C2078002807D12E48007E002803D109F01BFA002804D02D4828495338D7
:201F400013F047F8287809F0EEFE00202071012060713021E170207070BD70B5214C0546DB
:201F6000403C2078002803D11E48007E002804D01F481B495F3013F02CF8287800280BD04D
:201F8000012809D0022807D06878402804D318481349663013F01DF8284609F0DEF900284F
:201FA00001D0002000E00C202071012060713421E170207070BD70B50A4C0546403C207864
:201FC000002807D10748007E002803D109F0CEF9002804D057200249000112F0FAFF0BE0D3
:201FE000B01B000020030020D8010020AA020000B6050000C40900002978002913D00A29C6
:2020000011D014290FD01E290DD028290BD0322909D04B2907D0642905D0FF2903D0FE4950
:20202000FE4812F0D6FF284609F0FCFE00202071012060713321E170207070BD70B5F84CB4
:2020400006462078251D002804D120464030007E002804D05520F049000112F0BAFF31462C
:20206000002008F0A1FD2870002804D106223146EC4812F011FE012060713221E17020700B
:2020800070BD70B5E64C05462078002804D120464030007E002804D0A720DF49C00012F0DB
:2020A00098FF00216956042914D0002912D0081D10D0001D0ED0001D0CD0001D0AD0001D80
:2020C00008D00A3006D0283104D0D448D249443812F07FFFD4482978017001206071312146
:2020E000E170207070BD10B5CD4C2078002804D120464030007E002803D0C749CB4812F0EB
:2021000068FF08F045FAE08008F00AFB207200202071012060710521E170207010BDF8B50E
:20212000BF4C07462034A07B25462035002805D1287E002802D1A878002804D0B748B6495F
:20214000703812F046FF09F011F91026022822D1B7483988808988421DD1B14948390846F0
:202160000A7F6038807A002A03D080070CD40C200CE0800708D406200877AD484030407C9F
:20218000002801D009F0B7FE2E760020E07326740120A073F8BD0220F8E710B5A04C2078B4
:2021A000002804D120464030007E002804D09B489949823812F00DFF002020710E20A07056
:2021C0000F20E070FF20A0710020C04320819548C01D0178A1728188A1814088E0810120D1
:2021E0006071207010BD10B58D4C2078002804D120464030007E002803D087498D4812F088
:20220000E8FE0821A01D0FF095FA00202071012060712B21E170207010BD70B5804D04468B
:202220002878002804D128464030007E002804D07A487949B13012F0CCFE7D48102221461A
:20224000303800F0F9FB7A481022A118203800F0F3FB774830380FF074FB75491022103981
:202260002C46A81D00F0E8FB002020710E20A0702A20E07001206071207070BDF8B5684CBB
:2022800005462034A07B26462036002802D1307E002804D067486049E53012F09AFEA978F5
:2022A000052912D0132910D014290ED015290CD01A290AD0292908D03D2906D03B2904D002
:2022C0005C485549ED3012F084FE28885A49884204D958485049F63012F07BFE09F046F810
:2022E0000C212827022809D151482A888089904215D14B484838027E002A01D0E17310E080
:20230000A97841760121017637760020E07348484030407C002804D009F0EDFD01E002208E
:20232000E07327740120A073F8BDF8B53C4F064638783D1D002804D138464030007E0028A7
:2023400004D089203449C00012F043FE3146012008F02AFC01242870002807D1304806226D
:2023600060303146054612F097FCAC717C711720F8703C70F8BDF0B52B4F85B0403F3D7AE2
:20238000064627480078002804D13846A038007E002804D0D3202049800012F01AFE30789F
:2023A000002806D0012804D022481B492C3812F010FE082D4CD21C4820380190C46930786B
:2023C00000283FD0012804D01A4813491E3812F000FE294608310120884004430120A840D4
:2023E00020430090B1790E4C08027279690009191043FF3101318881B01C12F0AEFC7178C7
:2024000000020843A9000919C031C862387A401C38720199009811E0B01B00007E05000060
:20242000E00200202500002000040020E7060000D801002079030000FF0E0000C861002079
:20244000207108E029460831012088408443C5E7FE48072101710121FC480B224171C270A8
:20246000017005B0F0BD10B5F84C2078002804D120464030007E002803D0F549F54812F01F
:20248000A8FD12F0A5FE00202071012060710A21E170207010BD10B509F0DDFB002804D0E4
:2024A000EC48EB49583812F094FD08F06FFA08F052F80AF07EFE002804D0BD20E4498000F2
:2024C00012F087FD08F0B3FA002804D05F20E049C00012F07EFD12F07BFEDF4800240470B6
:2024E000FFF77FF9D9480121047141710222C270017010BD70B5D54D04462878002804D142
:2025000028464030007E002804D0F320D049800012F05FFD20781F2801D8601C04D1CD483B
:20252000CB498F3012F055FD002028712078611C08F054FB012068712021E970287070BD06
:20254000F8B5C24C0646207825464035002802D1287E002804D0BF48BD499C3012F039FD4E
:202560003078012806D0002804D0BA48B8499D3012F02FFD012060710C202071307800273C
:20258000B64E012808D008F0F1FE032867D008F0F1FE032871D076E008F0E8FE002803D16A
:2025A00008F0E8FE002804D008F0E0FE02283DD069E008F07EFA002865D0287C002862D11F
:2025C000A64802210C300FF03EF8002806D00F21B089090212F0DAFBB18100E0B7810122C3
:2025E00003219E4807F05AFE9C4808F006FCB08907F0D0FF002804D196489549B83012F002
:20260000E8FCB089002108F0C9F9002804D091488F49BC3012F0DDFC297F688B09F087FB38
:2026200000282FD08B488A49C03015E008F0A2FE002828D1287F002825D0012823D008F057
:2026400038FA00281FD0297F688B09F070FB002818D080487E49D33012F0BBFC12E00020C5
:2026600009F098FA00280ED12771287C00280AD1B089FFF797F806E0FFE7002009F08AFA62
:20268000002800D127711B20E07001202070F8BD70B56E4D04462878002804D12846403013
:2026A000007E002804D06B486949803012F091FC20781F2801D8601C04D1664864498130E7
:2026C00012F087FC002028712078611C08F09AFA012068711A21E970287070BDF8B55B4D73
:2026E000044628780C272E46403600280AD1307E002807D108F03AFE032803D008F03AFEC4
:20270000032804D153485249473012F062FC6079002801D001282FD1A079002801D0012876
:202720002AD1A07B002805D0012803D0022801D0032821D1607B40071ED0618801208003D5
:20274000814202D82288824201D920790CE02079002804D0022805D0032803D004E0202950
:2027600004D209E0A02A01D2012805D12088884207D92079012804D0364835495C3012F08C
:2027800028FC20887083207930776079002802D0012803D00CE0324A002105E02B4A6032F6
:2027A0009079002804D00121204608F086F9074601202F7168711821E9702870F8BD70B52A
:2027C000224C05462078002804D120464030007E002803D01E49234812F0FBFB08F0C6FDD7
:2027E0000C2102280ED11D482A8883899A4219D10246C032137F002B04D1807E0E2803D0E7
:202800000F2801D0217103E005201077002020710E20A0702E20E0702888E0800120607100
:20282000207070BD0220F2E770B5084C05462078002804D120464030007E002804D00948E6
:2028400003492C3812F0C5FB0EE00000E0020020B01B00003E03000000040020D8010020ED
:2028600025000020D104000008F080FD0C2102280ED178482A8883899A421FD10646C03607
:20288000327F002A04D1807E0E2803D00F2801D0217109E06F481022A91CEA3012F0FCF93F
:2028A00004203077002020710E20A0702D20E0702888E08001206071207070BD0220F2E707
:2028C00010B501780B0012F075FC3D878738878758878787873B3E87878751548787878768
:2028E00087874228872C3087878787348787878787878746874A4E872024876B5B5F6367D6
:20290000876F877E827B77738700801CFFF78CFF60E0801CFFF753FF5CE0801CFFF7DEFE63
:2029200058E0801CFFF7B4FE54E0801CFFF708FE50E0801CFFF7DEFD4CE0FFF7ACFD49E0BE
:20294000FFF791FD46E0801CFFF715FD42E0801CFFF7EBFC3EE0801CFFF790FC3AE0801C9C
:20296000FFF75BFC36E0FFF73EFC33E0FFF715FC30E0801CFFF7D3FB2CE0FFF7B4FB29E080
:20298000801CFFF77EFB25E0801CFFF757FB21E0801CFFF710FB1DE0801CFFF7DEFA19E045
:2029A000801CFFF7BBFA15E0801CFFF771FA11E0801CFFF729FA0DE0801CFFF7F3F909E0E4
:2029C000FFF7CEF906E0801CFFF79FF902E0801CFFF77DF9012010BD002010BD10B51E4939
:2029E0001E4812F0F6FA10BD70B51D4A01241146184D4031030012F0DDFB05191C1C041984
:202A00001C0001220021134807F048FC14480021483801774177C03809F005FA002804D0A7
:202A20000E480D49D33012F0D4FA70BD0C74556570BD09490B48F6E730B5134606E0CC18F9
:202A4000203CE47FD51A44555B1EDBB2002BF6D130BD0000D8010020B01B0000410600003F
:202A6000E00200204707000010B56038030012F0A1FB0A060A0F13181F262A31363B086833
:202A800000F093FD10BD05C9114600F0ADFD10BD086800F04CFE10BD05C9114600F054FE7F
:202AA00010BD4B6808788A68194600F065FE10BD4B688A680868194600F07FFE10BD086887
:202AC00000F09AFE10BD08884A6880B2114600F0EAFE10BD05C9114600F00AFF10BD05C978
:202AE000114600F01DFF10BD012010BD10B56C2801D0012010BD087800F0B8FE10BD0000AD
:202B000001203F49400608603E4908603E490A68FF231B029A4383121A430A6038498039C4
:202B20000860704710B502460420384904E0C3005B181B79002B0AD00346401EC0B2002BCD
:202B4000F5D133A1432012F044FAFF2010BDC300CA50002259184A718A7101220A7110BDBB
:202B60002A4A0021C00080180171704710B50446042803D326A1522012F02BFA2348E10082
:202B80000C182079012803D021A1532012F021FA6079A179401CC0B2814200D060710120E4
:202BA000174940068031086010BD70B5164800680004800F022803D015A1692012F009FACA
:202BC000124E194C03252078C10088190279012A07D1427983799A4203D0427982717058B4
:202BE00080472078401CC0B22070042801D30020207028466D1EEDB20028E4D170BD0000C6
:202C000080E100E080E200E018E400E02C1200207372635C736F635F7369676E616C6C695C
:202C20006E672E63000000003C00002010B5EFF31080C407E40F72B6D6484178491C4170C8
:202C40004078012801D10FF065F9002C00D162B610BD70B5CF4CE07800280AD10125E5706C
:202C6000FFF7E4FF0FF05EF9002804D000200FF031F9002070BDC84865714560F9E770B503
:202C8000EFF31080C507ED0F72B6C24C6078002803D1C2A18F2012F09CF96078401E607041
:202CA0006078002801D10FF039F9002D00D162B670BD10B5B748C178002904D00021417101
:202CC000C170FFF7DCFF002010BD10B504460FF029F9B049C978084000D0012020600020C2
:202CE00010BDF8B50246AB4C0026A6710820042101251027130012F05DFA0D080A0C0E107F
:202D00001214161E262123252800257122E0022001E021711EE020711CE027711AE0202018
:202D2000F9E7012616E0FFF781FF0FF0FBF80028FBD002260EE02171A5710BE02771FBE718
:202D4000202000E040202071F6E7FF2093A17E3012F03FF90FF0F2F8002809D00FF0F4F875
:202D6000B04205D130460FF0F2F80028FAD024E001208007C5608D4A002151608C4A9661F3
:202D8000854B02225A6085608A4803690569DB43DB06DB175B1C10273D430561834D00E0BF
:202DA00020BF6F68002FFBD0002B03D1076910239F430761784882606960A07900280CD0EF
:202DC0000FF0B0F805460FF00DF87B4A002D02D0A260E06001E0E260A060002E01D100F0E4
:202DE000B1F8F8BD10B504460FF0A2F8002805D068490120C8704A78521C4A702046FFF780
:202E000070FF10BDF8B5694FB8680025012802D1BD600FF05FF87868012800D17D60386806
:202E200001265C4C012814D13D606079002803D000200FF04FF865712078002809D00FF070
:202E400071F8002805D05948C038866300060661A670386901282CD13D6100F068F8012031
:202E600080074661A079002815D00FF05BF800900EF0B8FF0099002901D0E16800E0A168A2
:202E8000411A022901DA8A1C13DC0099002901D0E06000E0A060FFF7C9FE0FF043F800286A
:202EA00006D04248C038866300060661A67000E02670F868012819D100F039F800F037F825
:202EC00000F035F8A078002804D1FF2033A1053012F07FF8FD60A5702570FFF7D0FE0EF056
:202EE000F8FA002802D03148C038C663F8BD10B5284CE078002801D10FF010F8012081075C
:202F0000886100F014F8A07800280BD0274CE068002803D10FF01BF80028F8D10020E06097
:202F200000F005F800201C49C043886010BD08B55020694608806A461088411E11800028A3
:202F4000F9D108BDF8B5144819278760174900200860C8600EF0E6FFBD0701240D4E002853
:202F600005D01248C03884632C61B47000E03470FFF75CFE084847600D4930798863FFF7E7
:202F8000D6FFAC61FFF7D3FF0849002008616C61F8BD000040000020000300407372635CE4
:202FA000736F635F636C6F636B2E6300000100400005004000ED00E0FFFFFF7F10B510F03C
:202FC00064F810BD00200449C863012001218140024A116000BF7047C01F004080E200E098
:202FE00010B504460BF095F820460CF0AAF810BD70477047704770477047704770477047B1
:2030000010FFFFFFDBE5B151006001004F00FFFF03B40148019001BD09000020FE494870BC
:20302000704710B5030012F0C5F8080E050E08080B0B0E1104F07DF810BDFFF7D1FF10BD1B
:203040000DF0E8FF10BD01F095FE10BDFF20F3A1713011F0BEFF10BD7FB5F4490546486823
:203060008968082301910090F14A1946F1480EF08BFD0024F0480EF0A5FD641CE4B2082C73
:20308000F8D3EB490320803140020CF02FF9002803D0E2A1962011F09CFF1E220221E74895
:2030A0000AF0E7FCE5481E22032110300BF05BFAE2480722342174300AF034FCDF484C2108
:2030C000283011F048FEDD496A46743108464C380164FF317B31416401211172039002F0F4
:2030E000B4F802A80CF050FC002803D0CBA1AA2011F06FFFCF4802222421A8380AF012FC2A
:20310000CC4802222C215C380AF00CFCCC490B200EF082F8002803D0C0A1B72011F059FF50
:2031200003F0F4FF03F0F8F904F05AFE6B4600220821C4A001F070FF002803D0B7A1BE2088
:2031400011F047FF284605F071F9002803D0B3A1C02011F03EFF8521C900BD4811F0FBFD81
:20316000BB49B24A0020135C0C18401CC0B2E3700428F8D3A849002048608870C8707FBD5F
:2031800070B5B44E0546706A94B00C46401C04D1B06AC0430004000C0BD0306AC007C00FE4
:2031A0002870706A11F0EAFDB06A2071000A607113E02B206946087009A968460AF0F8FB7D
:2031C000002803D095A1E42011F003FF0120287006220AA9204611F05FFD2878002803D0C5
:2031E0006079C0210843607114B070BDF0B5994C0646206895B00D463746401C08370028D2
:2032000008D16068401C05D1A068401C02D1E068401C11D02068314611F0B0FD6068311D5C
:2032200011F0ACFDA068394611F0A8FDE06831460C3111F0A3FD25E02B206946087009A9F1
:2032400068460AF0B5FB002804D0FF2073A10E3011F0BFFE08220AA9304611F01DFD2B2032
:203260006946087009A968460AF0A2FB002804D0FF206AA1153011F0ACFE08220AA93846BF
:2032800011F00AFD20692E46401C0836002808D16069401C05D1A069401C02D1E069401CB6
:2032A00012D02069294611F069FD6069291D11F065FDA069314611F061FDE06929460C3187
:2032C00011F05CFD15B0F0BD2B246846047009A90AF06EFB002804D0FF2050A1333011F02C
:2032E00078FE082209AF0AA9284611F0D5FC6846047009A90AF05CFB002804D0FF2047A15B
:203300003A3011F066FE0822391D304611F0C4FCD8E710B5002108460EF00CFD00210120EB
:203320000EF008FD002102200EF004FD002103200EF000FD002104200EF0FCFC0021052088
:203340000EF0F8FC10BD10B5414CA0780B2804D3FF2032A18A3011F03CFE207860214843AF
:2033600000190830002101704178E722C908C900C91C11404170284A0121917010BD70B5A0
:20338000254CA07800280ED0314800250178491CC9B201700B2900D105708178491C81706D
:2033A0000EF093FDA57070BD70B51B4C05466068002804D0FF2019A1B33011F00AFE656018
:2033C00070BD70B5144E224DFFF7BDFF71680446002907D06022FDF7F7FEFFF7D0FF0020A5
:2033E0007060F1E72879002876D012485C380AF0A9FA6060002804D1FF2008A1D13011F004
:20340000E8FD60680AF0FCFA002831D0204600F06FFF607801071FE0340000207372635C4B
:20342000686F73745F636F72652E6300E0510100040400200C12002023300000840A00209C
:20344000B41000206E52463531383232000000008C0C00208000001007D5C008C000401C78
:2034600060702879401E287127E0F74861682AE0F54861680AF06FFA687900282CD0F24823
:203480004C380AF05FFA6060002804D1FF20EF49F43011F09EFD60680AF0B6FA002816D001
:2034A000204603F085FE6078010709D5C008C000801C60706879401E6871FFF760FF83E7A7
:2034C000E14861684C380AF046FA7DE704E0DE4861684C380AF03FFA70BDF7B505460078B2
:2034E000002700090C463E46062803D0D749D84811F06FFD287A00280ED0012814D0D44847
:20350000D249213011F065FD0298002C068001D0278066800020FEBD02270926002C0ED0F5
:20352000A889A080A87B08E003271426002C06D02869E060A88A2082287B2072E4E702988A
:203540000680E7E770B50E4600211C4619801546030011F02FFE0723050B1711231D230031
:2035600022462946304603F0EFFD70BD22462946304601F078F970BD22462946304604F0D5
:203580002AFB70BD22462946304602F0F9FF70BD224629463046FFF7A0FF70BD9720AB49BB
:2035A000800011F016FD032070BD10B5A94C2178002901D0082010BDFFF74EFD01202070F3
:2035C000002010BD0146A04810B54C380AF0C3F9A1494879401CC0B24871012803D19D48BC
:2035E0004078FFF7C3FA10BDF8B50546072040070F460A18012189038A4209D2002D02D062
:203600002818884204D2E81C80088000A84201D01020F8BD90488178002911D039880091F1
:203620004178602251430C18083420783B460007000F00222146FFF785FF060004D015E05A
:20364000002038800520F8BD002D13D039880098814201D90C260DE020783B460007000F64
:203660002A462146FFF76EFF060005D00C2E01D0002038803046F8BD774D6878401CC0B2B5
:2036800068700B2801D100206870A878401EA87061784807400F022810D00128EAD16A48A8
:2036A00061680AF058F92879401CC0B228710128E0D168484078FFF759FADBE7C806D9D426
:2036C0006068FFF77FFFD5E770B50446634816460D46814204D15E485C49C53011F079FCDB
:2036E000012E05D05A485949D53011F072FC70BD58480121C1706620207000202072A58100
:20370000A17370BD70B516460D46040001D1FFF71AFE662101700121017229680161A988FF
:2037200081820673002C01D1FFF729FE70BD07214907012241189203914201D310207047AE
:203740000721017000207047454A10B590420ED301239B04C21A434B9A4208D3424B9842A7
:2037600005D2072252078A18DB139A4201D3102010BD0DF08AFD10BD394B10B599420ED35D
:2037800001239B04374CCB1AA34208D3364B994205D2E3020124D318A403A34201D3102086
:2037A00010BD022803D0102801D0092010BD0DF092FD0028FAD0052010BD70B5284B98425E
:2037C00012D301239B04274CC31AA3420CD3264B984209D2E4020D19DB139D4204D2002A2E
:2037E00004D014199C4201D3102070BD0DF099FD0028FAD0072070BD10B504460720400763
:2038000001212018890394B0884202D3102014B010BD01F06AFD002801D01120F7E70F208F
:2038200008A9087369460BA80AF0C2F80028EED16846007A20706846408960806846808999
:20384000A0800020E3E70000B01100201C34000015020000340000208C0C0020FFFF00000C
:20386000006001000000FC1F0040002010B594B0044601F03AFD002801D01120C7E7002CED
:2038800001D00720C3E73921684601700021817009A90AF08DF8002803D02B492B4811F0E7
:2038A00098FB0020B3E770B5294C0846E178002913D000280FD007225207012385189B0386
:2038C0009D4203D20568AA189A4201D3102070BD8288002A03D0012903D0082070BD092076
:2038E00070BD04F0E1FA0028FAD10021E17070BD184A10B5914208D301229204164B8A1AA7
:203900009A4202D3154A914201D3102010BD0246203A1F2A02D801F01FFC10BD072010BD61
:2039200007225207012310B58A189B039A4201D3102010BD0246203A1F2A02D801F068FC15
:2039400010BD072010BD00001C3400007903000034000020006001000000FC1F00400020AA
:203960008107C90E002808DA0007000F083880082C4A80008018C06904E080082A4A8000E9
:2039800080180068C8400006800F704710B50D20FFF7E6FFC4B20420C043FFF7E1FFC0B221
:2039A000844203D021A11A2011F013FB10BD0121234A48031060234B00221A60224A516025
:2039C000224A1060224A11601D4980390860704701211B4A480310601D4A5160194A002112
:2039E00011601A490860704710B516490868012804D00EA1562011F0ECFA10BD1548806825
:203A00000022C0B20A600DF0BBFE10BD10B50D4801680029FCD0FFF7E7FF01200B49400319
:203A2000086010BD00ED00E000E400E07372635C736F635F68616C5F726E672E630000000C
:203A400080E100E000D1004000D3004080E200E000D0004000D5004030B40121BC48C902C5
:203A60000160CD1005604A030260BA4803681B021B0A036004680023240A24020460B6489D
:203A80000468240A24020460B448012444608460B34C23606360A360B24B19601D601A60A4
:203AA000B14B19601A600121016030BC704710B40121A748CC0204600A0202600B06036008
:203AC000A64841608160A6490020086048608860A44804600260036010BC70470121A148CC
:203AE000C9020160C91001607047002805D0012805D0022805D19D4870479D4870479D4891
:203B0000704710B59CA18B2011F063FA002010BD70B500219F4CA04DA04A914B002808D012
:203B200001281DD0022822D093A1B32011F051FA70BD01200004A060A86011601960984BD9
:203B400042109A60974A9060814A001210609648016087480160954801609548017070BDD3
:203B600001204004A060A8605160596070BD01208004A060A8609160996070BDF8B59446F6
:203B8000844A854D00240127754E002808D0012836D0022844D078A1E82011F01AFAF8BD1E
:203BA000891E0902090A012000049060346068607A4A1160012B21D000217D4A7D4B51700C
:203BC00061463D31DC63DF637B4B5C6002249C6004241C61744B196074490F60614B891558
:203BE0001960704B58606048016075487349C16086606B49600348601770F8BD0121DCE770
:203C000001205C4E40046F4F012B04D13460506068603960F8BD9060346068603960F8BDE2
:203C20000120524E8004684F012BF4D1EEE767484068704770B54A4D28680026554C012878
:203C400006D1A068C00303D501200004A0602E606868012809D1A068800306D50120400499
:203C6000A0606E6001200FF04CF9A868012809D1A068400306D501208004A060AE60022003
:203C80000FF03FF970BD10B549490878002818D00120434AC0039060424A400090602C4A46
:203CA00000121060404A00201060314A10603F4A106008704A78002A02D048700FF021F97D
:203CC00010BD0320FAE7012041490006086070470120244900060860704701203C494005A5
:203CE0000860704701201F4940050860704731490020C86388151B4908607047410A354A09
:203D0000C005C00D5043801C5143400A0818704710B4314C430B63431B0C5C020C602D4C8E
:203D20006343C31A2D485C0258432A4B400D4343E31A0124DB0324041B191B1613700A68C8
:203D40001018086010BC704710B50FF0B2F910BD80E100E008E400E018E400E000B000403B
:203D600040B1004080E200E000E100E048B100404081004044B100407372635C72656D5F59
:203D800068616C5F6576656E745F74696D65722E6300000000B3004040B3004040B5004001
:203DA00000F5014000830040408500400082004050000020C08F00400085004000800040BF
:203DC00080F5014044B5004048B5004000B5004000E200E0093D0000378600006F0C010081
:203DE0000E4A12680C498A420AD118470B4A1268094B9A4204D101B50DF0DDFD03BC8E46A2
:203E0000074909680958084706480749054A064B7047000000000000BEBAFECA1C010020BF
:203E200004000020901D0020901D002010B5FA4C94B02168087A002836D017206A461070D5
:203E400000A806220931023010F026FF09A9684609F0AEFD112825D02168C0318979062924
:203E600020D007291ED008291CD004291AD0092918D00A2916D00B2914D0052912D000287D
:203E800003D0E6A1F32011F0A4F82168B820405806221C30093110F0FFFE2068017A8030C1
:203EA000806BC17614B010BD3220C7E770B5DA4D044629680300C03111F07CF90C077C0B24
:203EC0001A212E3B48515C677080FF20D3A109306EE0887901286DD009286BD0052869D09F
:203EE0000A2867D00B2865D0FF20CCA10E305FE0887901285ED0FF20C8A1153058E088798A
:203F0000062857D0072855D0082853D0052851D0FF20C2A118304BE0887909284AD00A28E4
:203F200048D00B2846D0042844D0FF20BBA11E303EE0887903283DD007283BD0082839D04D
:203F4000092837D0FF20B5A1243031E08879062830D00A282ED0FF20B0A12A3028E088791D
:203F6000062827D0072825D00B2823D0FF20ABA12E301DE0887906281CD00A281AD00B28A2
:203F800018D0FF20A5A1333012E08879092811D00A280FD0FF20A1A1383009E08879092877
:203FA00008D00A2806D0082804D0FF209BA13C3011F00FF82868C030847170BDFF2097A155
:203FC0004130F5E79449C9220968525CD206920F05D1A0318A8B824201D1887F7047002004
:203FE000704770B504461120207000218A4D61702968C031897A002908D003290ED0042954
:2040000010D0FF2085A16A3010F0E3FF20780009012802D92868807D607070BD0007000FBA
:20402000203002E00007000F30302070EEE730B503887E497E4C8B4202D09A1FA2421ED246
:2040400042888A4202D0951FA54218D2934216D883887D24E400A34211D8C088884205D06B
:20406000734D04460A3C2D1FAC4208D2884208D08A4206D05B1C5A43C000824201DD0720FB
:2040800030BD002030BDFFB50022099B002802D0994205DC5CE0002902D1002004B0F0BD3D
:2040A0000920FBE7845C002C12D085186F780D2F4CD010DC3B0011F07DF80A421B2A2A30A3
:2040C0003032323A3A42835C002B3FD1521CD2B28A42F8DBE1E7122F31D004DC0E2F35D0BF
:2040E0000F2F2CD132E0142F11D0152F27D116E0022CD5D1AB78039C072B237001D25B078D
:2041000001D40A20CAE7029B01241B7814E0E343DB0708E0012C08D011E00620BEE70F25C1
:2041200023072D075B19002BF4D03046B6E7029B1B789C070AD402242343029C2370835C5E
:20414000521C9A18D2B28A4204DDA9E70B20A5E7192676028A42A5DB9FE705E00278401C83
:20416000002A01D0002070470A46491E89B2002AF4D10120704730B5274D0021286887B073
:20418000C943A030818300248477214606200DF0D1FD002105200DF0CDFD002102200DF07B
:2041A000C9FD0120FFF782FE28686946C030C47104720120087068460BF007FC07B030BDDF
:2041C00030B5154C95B02268C0329279042A0CD0052A0AD028236A4613705080132906D05A
:2041E0003B2904D0072015B030BD0820FBE71171104609A909F0DCFB05000BD12068C030F1
:204200008179062916D0082914D0072912D00520FFF74CFE2846E6E7540000207372635CB0
:204220006761705F636F72652E630000FFFF00007B0C00000420EBE730B587B0040003D03F
:20424000002107200DF076FDFE4D012128686A4601720421117003210C300DF06BFA29688D
:204260004022887B8006800E1043887368460BF0ACFB00280DD12968098A00299ED0002C3A
:204280009CD08B000122002107200DF0AEFC072801D0032092E7002090E770B5002506464C
:2042A000002803D0002107200DF044FDE54C012120680172062109300DF03CFA2068817B18
:2042C0008906890E8173FFF7B1FD2068008A00280AD0002E08D083000122002107200DF01B
:2042E00084FC072802D00325284670BD0025FBE7F0B59BB0040004D11920D349400110F014
:2043000068FE72202070616800260A780825521F0127CC48130010F04DFF0F0976D9FD7691
:2043200078FCFBB576767676FAF97600C5480068C0308079032803D0C349C44810F049FE5D
:20434000002108460DF0F6FC002107200DF0F2FC6078BC4A28436070106810250146C031CE
:204360004B7A2B434B7263689D783C2D48D002469D88A032977763688030DB890B8063686A
:204380001B8A4B8063685B8A8B8095836168826BC97911756168806B08311530062210F002
:2043A0007BFC0620FFF782FDA648CA210068FB220E54017E11400176B82109588A7A92080C
:2043C00092008A724682284602F0ACFE002804D09E489D491A3010F0FCFD284602F0BCF85E
:2043E000002804D0994898491D3010F0F2FD284603F008FD002806D069209349C0003EE11B
:204400000120FFF753FD1BB0F0BD064600688F88C0308079062812D0072810D008280ED0DC
:2044200004280CD009280AD00A2808D00B2806D0052804D0D5208449800010F0CAFD607874
:20444000284360703068C030417A294341728079092811D00A280FD00B280DD005280BD08B
:20446000FFF789FE384602F062FE384602F07AF8384603F0FDFCC6E7FFF77DFE0220FFF76D
:2044800015FDEFE70068C0308079062812D0072810D008280ED004280CD009280AD00A2871
:2044A00008D00B2806D0052804D06F206649C00010F08FFD6068807902F0F1FE0028A2D054
:2044C0006178294361706168C8809CE707460068C0308079062812D0072810D008280ED067
:2044E00004280CD009280AD00A2808D00B2806D0052804D055485449623010F06AFD60788A
:20450000284360706068C188386804E032E197E184E084E00FE0C0300180616809894180FC
:20452000616849898180002102200DF003FC3868C030C67167E706460068C03080790628C0
:2045400019D0072817D0082815D0042893D0092811D00A280FD00B280DD005288BD03B487A
:204560003949793010F035FD3068C03080790428ABD00528A9D03068807C40063AD560685F
:2045800002210C30FFF7E9FD002833D060680821001DFFF7E2FD00282CD03168B8204058A5
:2045A000807A800708D1CA20405C002808D1488AC20505D5C00703D14A8A402082434A8247
:2045C0004A8A802082434A822D2268460270BC20425A684642801022973101A810F05CFB85
:2045E00009A9684609F0E4F90028A3D017481649A03044E062683068AC2192890A526168C9
:204600000822091DAE3010F047FB10A805743068AE30159014A80BF0D8F9F4E68F71064630
:204620000068C030807906281FD007281DD008281BD00428F1D0092817D00A2815D00B2886
:2046400013D005E0540000201C420000290300000528E2D0F949FA4810F0BBFC3068C030F2
:2046600080790428D9D00528D7D060688179002902D08078002805D0F148F0496C3010F0D8
:20468000A8FCC0E66078B8212843607030680958897A8907890F012952D1817C09064FD444
:2046A000017E490701D5042100E00321C03081722B206946087009A9684609F079F90028E4
:2046C00004D0DF48DD49213010F083FC69463068098D81820E2210A90A74DA49B8221591FF
:2046E000125808324A61024660324A6092790A70024614320A61521D8A601032CA60133A57
:204700008A619632CA61921C0A62473A4A6210328A621032CA62473ACA63521E0A64921F9B
:2047200050304A64886414A80CF038FB022815D0002813D0C248C1494A3010F04AFC0DE099
:20474000817C4906017E490701D5042100E00321C0308172002106200DF0ECFA3068418ACF
:204760000A0602D440229143418289B280229143418248E6B4480068C0308079032804D06C
:20478000AF48AE49783010F024FC002108460DF0D1FA002107200DF0CDFA6078AA4A2843E9
:2047A0006070106810250146C0314B7A2B434B7263689D783C2D00D122E602469D88A032F3
:2047C000977763688030DB890B8063681B8A4B8063685B8A8B8095836168826BC9791175D5
:2047E0006168806B08311530062210F055FA0620FFF75CFB9448CA210068FB220E54017E70
:20480000114001764682284602F08CFC002804D08B488A49923010F0DCFB284601F09CFEEC
:20482000002804D086488549953010F0D2FB284603F0E8FA00289CD08148804997301EE719
:20484000607828436070DEE500290BD088807E480068C0300288CA8002880A8142884A81DA
:20486000808888817047F7B5064600780C460027010982B03D46012974D0734800680090A7
:20488000C03002296FD0072904D00A296CD06B496E48E3E171680A78521F130010F08AFCB8
:2048A0000F09A551A5A52F585847A5A5A5A5656FA5008A783C2A1BD010271625002C7DD02F
:2048C0008888A0807068A21DC08920827068C089E0817068008A60827068408AA0827168C3
:2048E00008460831C07901F09FFB0020607375E019270725002CE2D00021A17171E011271F
:204900000725002CDBD089880091A1807168F7228979A171417A11404172009802F008FC7E
:20492000009801F023FE009803F0B0FAC1E101270925002CC3D08888A0807068807920724E
:20494000B7E1888812270E252146FFF77DFFB0E118270825002CB2D08888A080A01DFFF7DC
:2049600040FBA6E145E0A1E15DE01A270725002CA5D04888A08070680079A07199E18A78B5
:204980003C2AB5D010271625002C98D08888A0807068C08920827068C089E0817068008A4F
:2049A00060827068408AA0827168607B497D40084000C907C90F0843607300E036E17168B9
:2049C000C007497DC00F49084900084360737168A21D08460831C07901F026FB1A4800688F
:2049E000C030417AEF22114046E153201349000134E1307A012803D014481049C5382DE138
:204A000012270E2570892146FFF71EFF002C91D070784007400F032888D10B480068C0307D
:204A2000417AFB22DFE708490968A031002C01D08A8BA280327A921E0AE000001C4200006D
:204A4000ED030000AC120020540000200C060000130010F0AFFB073D4853EDEE6F05ED002A
:204A600013270C25002C90D0009900224A82F16889788907890F0129217A26D049084900E1
:204A80002172FD231940F3689B785B07DB0F5B0019432172E323E2801940F3681B785B07F5
:204AA000DB0E19432172DF231940F3685B78DB079B0E194321726272F1680122C978A17277
:204AC000017A1143F7221140ADE001231943D7E715270C25002C9AD0F06806220068A11D29
:204AE0000EF07CFFE5E016270725002C8FD0317BA171017A08221BE00172DAE01427122587
:204B0000002C84D00098A21D8030806B01461531007D01F089FAB089E081207C0121084302
:204B2000F92108402074FE480068C030017A02221143E1E717273825002C77D03221A01D08
:204B400010F007F90020A071207A032108432072FB210840F24909680A7E5207D20F920025
:204B600010432072B8204058807A800757D0A07A8A7C4008D2074000D20F1043FD22104014
:204B8000A0728B7CFB229B07DB0F10409B001843A0728B7CF7269B07DB0F3040DB001843A5
:204BA000EF231840A072E07A10408A7CD206D20F92001043E0728A7C3040D206D20FD200D8
:204BC0001043E072888AA0812046102267310E3010F062F8D249A07F0968C0078A7DC00FED
:204BE00052001043A0770A7E400852074000D20F1043A077084640304DC820344DC4303CA1
:204C00003F20405C22463032393101F00DFAC44800688030806B817A890889008172C0484E
:204C20000068C030017AFB22114065E737E000E038E0327B022A14D017273825002C2ED056
:204C4000017AFB2319400172012A17D0032A17D0042A18D0052A16D0B249B34810F0B9F9F6
:204C600027E019270725002C19D0898BA1800121A171417A4908490041721AE0012000E040
:204C80000220A07106E0707B0007000F8030A071052A02D00020E0710BE00120FBE704983D
:204CA00005800CE0A0489F490A30D7E7317A002908D00498002C058001D027806580002045
:204CC00005B0F0BD19270725002CE8D00021C943A1800021A171417AFD2284E610B5904CBC
:204CE00094B02068C0308079022809D0032807D0052805D0092803D00A2801D00B2837D1B6
:204D00001B2108A801730021817369460BA808F04FFE002804D1684640781B2802D00320DC
:204D200014B010BD002108460DF004F8002107200DF000F868468078002819D12068C0300D
:204D40008079801E030010F035FA0A060613081313130D0F1113012000E00420FFF7A6F827
:204D60000020DDE70620F9E70720F7E70820F5E70820D5E770B50025694C002807D0022834
:204D800017D0072828D033206649400146E0FFF7A5FF00280CD1FEF7D6FA2221017005720D
:204DA000FEF7EDFA2068C030417A02221143417270BDFEF7C8FA1221017001210172216813
:204DC000BC22525A4281C031CD71FEF7D8FA2068C030417A0422E9E72168C620405C022832
:204DE00009D0032807D0092805D00A2803D00B2801D00528DCD1887B8109012911D08009CE
:204E000004D0494847496E3010F0E3F80020FFF744FA0028CCD044484249723010F0D9F882
:204E200070BD0020FFF708FAF3E770B50D46040004D1CD203B49C00010F0CBF8207801284D
:204E400005D0394837499D3010F0C3F870BDA1883648334E814209D1E288824206D1306865
:204E60001321A030808BFFF7ABF970BD814202D1E08800280AD0122028706878082108433E
:204E8000687007CC083507C5002106E000227823114602200CF0A9FE02213068C030C171A1
:204EA00070BD1F480068C030807A704738B51C4C05460278206813000146C03110F07AF9F5
:204EC00009A8060909A21945728AA800FEF7AEFF38BD8879062806D0092804D01248114910
:204EE000B53010F076F820680422017E1143017688E0A9880029EBD0A030808B0B498842F1
:204F0000E6D0A868002804D107480649C53010F060F8A8680A38A8600090AB88206807E057
:204F2000540000201C420000E9050000FFFF0000A030808B0622042102F028F80028C7D0BA
:204F4000F849F94810F045F838BD2879022888790DD00428F8D00528F6D0284601F075F841
:204F600020681321A030808BFFF72AF938BD072806D00A2804D0EC48EA490A3010F029F8BF
:204F8000284601F062F820680122C030417A114341728079072803D00920FEF787FF38BD67
:204FA0000620FAE7887906280AD0042808D0092806D0052804D0DC48DA49313010F009F82C
:204FC0000ECDDA480361C2608160A2210170FEF7EBF938BD8879062818D0072816D009280E
:204FE0000DD00A280BD0D048CE4944300FF0F1FF2068C0308079062808D0072806D00B208E
:20500000FEF754FF284601F020F838BD0820F7E7C548C449583095E7FFB593B001246846EE
:2050200003218470C9021D4601800AF0A6F900226946012003F0ABF906460AF0A2F9002E78
:205040005CD16846152184704902018000271C2101A808970FF07FFE01200146103108A8FE
:2050600001700020014608A841708178F9200140891C214308A88170684601790226314336
:20508000017114998185C7851F21018608A80A9013980D90684609900AF06FF90EAA09A933
:2050A00001A802F036FF07460AF06BF9002F02D0384617B0F0BD9E4F68463968008F4880EF
:2050C000684684709B49018008A88078F9210840801C4108490008A88170684686850686AB
:2050E00015A80D900AF049F90EAA09A901A802F010FF06460AF045F9002E01D03046D8E74E
:2051000068463968008F88808A4968468470C91C0180298810A8018069884180A988818000
:20512000E988C180082168468185018610A80D900AF023F90EAA09A901A802F0EAFE0446B7
:205140000AF01FF9002C01D02046B2E768463968008FC8800020ACE7F0B5774D95B00C4668
:20516000A9423FD30126B604744FA11BB94239D373498C4236D2202806D0212827D0222891
:2051800042D0072015B0F0BD3C2168460170218841806188818009A908F00AFC0028F1D1FA
:2051A00008A98979002903D002290ED00320E9E76168A942E6D38A1BBA42E3D3604A914203
:2051C000E0D26A46128D0A80DCE75E48DAE72068574C002813D0072149070122411892035B
:2051E000914201D31020CDE706210EF0E1FB2168A82250500120A03188750020C2E72068F0
:205200000021A0308175F8E7204600F02AFFB9E7494A10B5914208D301229204474B8A1AB4
:205220009A4202D3464A914201D3102010BD202805D0212803D0222803D0072010BD062019
:2052400010BD084600F051FF10BD70B504463748CC21AC300FF07FFD3448354EAC300021F8
:205260003060C943A0308183002585770120FEF71DFE3068C7210D54E121C5738900018245
:20528000B6210D54014609310830FDF779FF3168084629311930FDF7A9FF002C24D03068D3
:2052A00080308463FEF7C2FD1E20E081607A8F210840303060723068014614312161983191
:2052C0006162933921601031616025721339A162091FE1628531E16330392163103161637F
:2052E00010310930A163A06470BD11480068C0308079042803D0052801D000207047012060
:20530000704770B506460C480C46814208D3012080040A49201A884202D30948844213D353
:20532000102070BD1C420000B30600004C12002054000020012A0000006001000000FC1F60
:205340000040002002300000FFF7CFFF002801D01120E6E7FD48FE4D002E02D0012E46D12A
:205360002FE02278002A0AD00121012A09D0022A14D0032AD5D1A2799209D2D112E000210B
:2053800003E0A2799209032ACBD128680622017260308171611C0FF07FFC05E0A27992096C
:2053A000012ABED128680172002107200CF0C2FC28680622611C09300FF06EFCFEF736FD2F
:2053C00011E02178002912D0012910D0022910D00329A6D10120FEF760FF002803D0DD49EA
:2053E000DD480FF0F6FD2868C673002099E7072097E70120FEF720FFEFE7072149070122E2
:2054000010B541189203914201D3102010BDD049024609680B7A0931184600F005FE002033
:2054200010BDFFB599B00546002069460871087208A9087408751E4614460121C74889046F
:20544000C74AC84B002D06D085420DD36F1A97420AD39D4208D2002C09D0844204D3601A6A
:20546000904201D39C4202D310201DB0F0BD2846204318D01F270CAB01AA009728461A9910
:20548000FEF701FE0028F0D10DAB02AA314620460097FEF7F8FD0028E7D16846007AC1079D
:2054A00003D00A20E1E70720DFE7800705D568460079800701D50B20D7E7FFF716FF002839
:2054C00001D01120D1E703AF002D0FD01A20694608731A9888732946F81C1A9A0FF0DCFB36
:2054E0000EA903A808F064FA0028BED1002C0ED0202168460173867332462146F81C0FF0E5
:20550000CBFB0EA903A808F053FA0028ADD1904908A80968007C08700020A6E7F0B50446EE
:205520008E48002795B084426FD301208004211A8B488142F8D38B48844266D22378012B48
:205540000BD1864960688842EED39904421A84498A42E9D383498842EFD27D490A68154615
:20556000C035A879022814D0032812D0052810D009280ED00A280CD00B280AD0012803D0C7
:20558000002B06D0012B04D0687AC506AD0F06D101E00820F6E5850701D4400701D5112037
:2055A000F0E5012B15D0208A6F4E0546203DB5427ED2022B01D0032B01D1A02878D3012B72
:2055C00007D01078C00704D0608A002870D0B4286ED8002B06D0012B08D0022B04D0032B29
:2055E00066D110E0002512E0022510E060680125007800280BD0012808D0022806D00328C1
:2056000004D05248BEE5032501E066E00127D07B01281CD1108A002819D0907B8109012937
:2056200011D0800904D04C484A49E4300FF0D1FC0120FEF732FE00280BD047484549E830A7
:205640000FF0C7FC05E00120FEF7F6FDF3E7FEF7EDFB207A002806D0012806D0022806D04C
:20566000032825D105E0002604E0012602E0022600E00326002D01D0022D42D1002E40D062
:20568000E068002814D00179002928D008290FD8027B9446082A0BD800290ED02F4A0168AE
:2056A00091421AD3012292048B1A2D4A934200E084E012D32B4A91420FD26146002912D07C
:2056C00080682649884208D301218904421A24498A4202D32349884205D3102052E5027BC3
:2056E000002A6BD0D4E71A4800680078800702D01648401E46E5022D03D1022E5ED0032E76
:205700005CD0182168460170218A4180218A818085710F480068007A002801D0012870D15B
:205720006946C8716846077221780930012932D006210FF00EFB07216846C173067409A9F7
:2057400008F036F90028C9D10A210FE002320000540000201C4200005F0800000060010078
:205760000000FC1F00400020E13F00006846017009A908F01DF90028B0D13A206946087085
:2057800009A9684608F014F90028A7D1002D08D0022D06D04CE061680622491C0FF07CFA03
:2057A000C9E7002E44D00026374623E00168B00009580978002903D0012904D00720E1E470
:2057C00069468F7002E001216A469170E16806220968095800A8491C03300FF05DFA0B2062
:2057E0006946087009A9684608F0E2F80028E6D1761CF6B2E0680179B142D7D800266F46F8
:2058000012E050E08068B10041581022B81C0FF043FA3B206946087009A9684608F0C8F858
:205820000028CCD1761CF6B2E068017BB142E9D81B20694608700120887009A9684608F01E
:20584000B7F80028BBD108A840791B282BD1002D0AD0012D04D0022D08D0032D18D105E02F
:205860000320FEF723FB26E003200FE0FE480068C030807903000FF09DFC0916061616183F
:2058800016081A1C1600022000E00920FEF70EFB608A00280FD000228300114610460CF036
:2058A000A4F9002807D003206CE40520EEE70A20ECE70B20EAE7002064E470B586B00C0017
:2058C00006460BD0E94884424AD301208004E849201A884244D3E748844241D2E24D2868D5
:2058E000C030C179022902D0407A400702D5112006B016E5002C04D02046FEF798FB0028B1
:20590000F6D13046FEF75EFB012803D0022823D0D948EDE721001BD1082069468882286870
:2059200001ABC08805AA002103F019F90028DFD16846808A082801D00320D9E76846818873
:205940008181C188C181018901824189418203A9304601F074FCCBE7002C01D00620C7E71A
:205960001020C5E770B50C460546FEF72BFB012803D0022801D0C048D3E421462846FEF7EE
:205980001FFCCEE400B50146143095B0192801D2880707D008461E3004D00A3002D0072098
:2059A00015B000BDFFF7A1FC002801D01120F7E7AD4831220068417068460270817009A9A6
:2059C00007F0F6FFECE701B582B0022069460880A54802AB00686A468088002102F02AFFD1
:2059E00069460988022900D003200EBD38B502216A461180072149070122411892039142D1
:205A000001D3102038BD9849034609686A468C880021204603F0A3F8694609880229F1D0ED
:205A2000032038BD3EB504460820694608808F48844208D3012080048D49201A884202D3E6
:205A40008C48844201D310203EBD2046FEF7EFFA0028F9D12088694688806088C880A088C0
:205A60000881E0884881804801AB00686A46C088002102F0DFFE694609880829E4D0032060
:205A80003EBD1FB504460820694688817748844208D3012080047649201A884202D37548B3
:205AA000844202D3102004B010BD6F486B46006803AAC088002103F052F80028F3D16946DC
:205AC0008989082901D00320EDE769460988218069464988618069468988A1806946C98898
:205AE000E180E0E7FEB50546604817460E46814208D3012189045E4A731A934202D35D4B53
:205B00009E4201D31020FEBD1F2F01D90C20FEBD554C85422AD3681A904227D39D4225D24E
:205B2000206801A9408802F037FE0028EFD1287869464871206801A9408802F010FE002832
:205B4000E5D169460090087802210843694608704979090703D00821084369460870206873
:205B60006946408802F0A5FD0028D0D169460F8120683346408802AA002102F05BFE694682
:205B80000989B942C3D00320FEBD38B50C460721012249079203002802D04318934202D29A
:205BA0006118914201D3102038BD21886A461180002801D000290BD02B49034609684D88B6
:205BC0000021284602F0CBFF69460988218038BD0C2038BD30B50C46244987B08C4208D3FF
:205BE00001218904224A611A914202D321498C4202D3102007B030BD1B4D2968C0310A7A18
:205C0000520708D48979491F0B000FF0D3FA05040604040604000820ECE7FEF7D3F9012808
:205C200003D0022839D01448E4E720881E2801D20720DFE72868C030807906282BD00A20BD
:205C4000FEF734F90520694608700879A1788008C9078000C90F084369460871FB210840B5
:205C6000A1788907C90F09E054000020006001000000FC1F00400020023000008900084364
:205C8000694608712088C880684609F09EFE0028B0D00320AEE70720D2E70620AAE7F0B50D
:205CA00087B014460D46FEF78DF9012804D0022802D0FE4807B0F0BDFD4B18680146C031E2
:205CC0000A7AD20707D08A79042A04D0052A02D0002D02D052E00820ECE7F64A944208D36D
:205CE00001229204F44BA21A9A4202D3F34A944201D31020DEE7A278D206520F042A0CD8FE
:205D0000E378072B09D3102B07D822799A4204D3102A02D822881E2A01D00720CAE70246BB
:205D20008032966BF727F372966B23793373966B737A3B40A778BF06FF0FFF003B4373722D
:205D4000966B2388F381966BA778B37AFF079B089B00FF0F3B43B372FB273B40A778966B24
:205D6000BF07FF0FBF003B43B372926BA478537AE406DB08DB00640F234353720B226B46E3
:205D80001A70852D22D008DC002D17D0812D17D0822D17D0832D08D116E0862D18D0882DE3
:205DA00018D0892D18D08A2D18D00B221A71B622125CBF4C002A13D0A83012E00022F5E7E0
:205DC0000122F3E70222F1E70322EFE70522EDE70622EBE70822E9E70922E7E70A22E5E7EF
:205DE00000200290887907280BD0082809D00920FEF75CF8684609F0E8FD002803D00320C1
:205E000058E70620F4E720680422C030017A490849001143017200204CE770B5A44E0D460B
:205E2000316886B0C031097A1446090701D408205EE5FEF7C7F8012803D0022801D09B48E7
:205E400056E5002D12D09B48844208D3012080049949201A884202D39848844201D310206A
:205E600046E5012D0BD0022D02D106E0002C01D007203DE50020029005E0022000E0012006
:205E8000694608710294032069460870684609F09CFD002801D003202AE53068F722C030EE
:205EA000017A11400172002022E570B594B014460E46FEF787F8012804D0022802D07B4835
:205EC00014B059E57A4D2868C030007A800701D40820F5E7002C01D00720F1E7FFF705FAAE
:205EE000002801D01120EBE7002E1DD02D21684601702C68BC20015B684641801022B11CE4
:205F000001A80EF0C9FE207EFB210840B17CC907490F08432076B07CFF214008A075608A48
:205F200082310843608207E02E21684601702868A030818B6846418009A9684607F038FDC5
:205F40002968FD23C0310A7A1A400A72B8E710B50C46FEF737F8012803D0022801D05348D9
:205F600010BD5448844208D3012080045249201A884202D35148844201D3102010BD204668
:205F8000FEF72FF8002010BD10B594B00446FEF719F8012804D0022802D0444814B010BD89
:205FA00043480068C0308179042910D005290ED03820694608704C8001200871487109A99B
:205FC000684607F0F5FC0028E8D00B20E6E70020E4E710B594B00446FDF7F4FF012803D032
:205FE000022801D03148D9E731480068C030817904290DD005290BD03820694608704C8044
:2060000000200871487109A9684607F0D1FCC5E70020C3E726480068C0308079062801D3D3
:20602000012070470020704708B51346002806D023A00068009048796A468009105C1870F4
:206040000622581C0EF028FE08BD10B50446FDF77AF9A22101700ECC08300EC0FDF78FF9B5
:2060600010BD70B5124C054601682068002913D0104A914208D3012292040F4B8A1A9A42ED
:2060800002D30E4A914201D3102075E4102277300EF002FE206801218030806B017220688C
:2060A000A9880182C17B012919D10BE00230000054000020006001000000FC1F004000206F
:2060C0000302FF01807B800901280AD00120FEF7E4F8002803D01A491A480EF07AFF0020EB
:2060E0004AE40120FEF7A8F8F3E770B505460068154C00281ED00721490740180121890315
:20610000884201D3102037E42068B8210958097A012909D00146773129300AF08EFF2068F7
:2061200001218030806B017221681022286877310EF0B2FD2068008AA88000201CE4000035
:206140001C420000FD02000054000020FFB581B001980E46C078174610360E37022809D079
:20616000032840D005287DD0F2A1F7480EF031FF05B0F0BDCC890A2060430E3018803123BC
:206180000A98002A0380F3D04868008890800020D0801081097B9481891FCDB21AE0308832
:2061A0007168388048780A7800021043F880C8788A78000210433881BA1C091D28460BF08A
:2061C0008AF8002D01D0002802D000203871788008360A372046641EA4B20028DFD1019955
:2061E0000020C870C4E7CC890A2060430E30188032230A98002A0380BAD048680025008819
:206200009080D5801581087B401FC0B20090948142E0716832880878FA803A79C307520804
:206220005200DB0F1A43FD231A408307DB0F5B001A43FB231A404307DB0F9B001A43F72361
:206240001A400307DB0FDB001A43EF231A40C306DB0F1B011A43DF231A408306DB0F5B01F5
:206260001A4300E020E0BF231A404306DB0F9B011A433A71C00978718A784B7810021843EA
:2062800038813A46C91C00980BF025F8002801D0BD703D8008360A372046641EA4B2002868
:2062A000B7D10198C57063E7087BCC89801E85B22846083060431030188034230A98002A4D
:2062C00003808FD048681746008890800020D080108194811037E000D581C0190CE0308827
:2062E0003880009878602A46716800980EF0D4FC009808360837401900902046641EA4B28B
:206300000028ECD16BE7FFB50546C07881B00C460A9E03000EF04EFF0BA3071733414F6D9A
:206320008F9D9D9DA300207B1746082806D0032804D085487FA154300EF04BFE04990E20D4
:20634000088030200CE0207B1746042804D07E4878A171300EF03DFE04990E200880312024
:206360003080002F44D060680088B880607AFF300130F880E08938810020B88137E0207BC3
:206380001746042804D070486AA18D300EF021FE04990E2008803220E2E7207B1746022873
:2063A00004D0694863A1A9300EF013FE04990E2008803320D4E7207B1746042804D0624869
:2063C0005CA1C4300EF005FE04981021018034203080002F0CD060680088B880607AFF30DD
:2063E0000130F880E08938810020B881F881E870BEE6207B1746052806D0062804D052486D
:206400004CA1E1300EF0E5FD04981221018035203080002FECD060680088B880607AFF30CD
:206420000130F880E0893881E089B88100203882A988F981DBE7207B1746072804D0424823
:206440003CA1F8300EF0C5FD04990E200880362086E700962846049B00F02DFD88E635A160
:206460003A480EF0B6FD83E670B5054600780C46082603000EF09EFE124C3434241C380A33
:206480000A0A0A0A0A0A0A0A0A0A0A4C6878002804D02E4827A12C300EF09BFD002C03D136
:2064A0001F2024A1400108E060783043607020E0002CF9D17D201FA1C0000EF08AFDF3E722
:2064C000002904D03F201BA100010EF082FDFCF73AFF0446407830436070FCF750FF08E08B
:2064E0001A4814A1473002E0184812A14C300EF070FD002C0AD06078000707D5932020702E
:206500002046582229460830FAF75EFE002070BD0E4808A15030EAE710B500200C4C0D4977
:206520000346C2008C525218401C0006D370000EF7D010BD7372635C67617474635F636FD9
:2065400072652E63000000005A020000B3030000FFFF000058000020FE4908800120887063
:2065600000207047FB4900208870704710B50021F848C94301800021C17007F053FAD8E729
:20658000F7B584B00546002768460781878068680C46008800F0ECFB0646287A032805D0FD
:2065A000002E03D1EC49ED480EF013FD297A2046C91E123000900B000EF0FCFD0FF2F1F0BB
:2065C0003D09AA465C6D34B3CDF38B8BF000F078012803D0E049AD200EF0FBFCA8896946E0
:2065E000C0000E30888030200881002C22D068680188A180E7802781A989A18100200DE0B4
:20660000C100B27909190A74B288CA8182005219D3894B82128A401C8A8280B2A189814230
:20662000EED8D7E002A8009001AB22462946304600F0CCFBF1E002A8009001AB2246294665
:20664000304600F005FCE8E0F07806281AD0FF20C149223014E068680188A180E780278193
:20666000A989A181B188E181E9892182EA89296900982BE0F078062804D0FF20B6493C307A
:206680000EF0A7FCE88969461230888035200881002CE0D1C1E0F078072804D0FF20AE4912
:2066A00056300EF096FCA88969460E30888036200881002CBED068680188A180E78027817C
:2066C000A989A1812046AA890E3029690EF0E4FA80E0E8896946123080B2382288800A8140
:2066E000002C79D068680188A180E7802781A989A181287A102809D00221A173E989218249
:20670000EA89296900980EF0C7FA86E00121F4E702A8009001AB224629463046FFF716FD7E
:206720007BE0F078082803D08B498D480EF051FC14206946888037200881002C6DD068689B
:206740000188A180E7802781A989A181678227820120A0733EE0F078092804D080487E494C
:2067600018300EF036FC288A69461430888037200881002C51D068680188A180E7800421C1
:206780002781A173A989A181E9892182298A618220462A8A1430696998E702E038E01CE099
:2067A00024E0F0780A2804D06D486B4933300EF010FC14206946888037200881002C2CD09E
:2067C00068680188A180E78027810521A173A78127826782F77020E017E002A8009001ABF8
:2067E000224629463046FFF78EFD16E00D206946392288800A81002C07D00120E0805548EA
:206800000188A1802781277307E00699088010E08F205149C0000EF0DCFB6846069980885B
:206820000880002C05D0684600892080684680886080002007B0F0BDF7B594B015460F463E
:20684000149800F0A0FA04000AD0032000F088FB022802D2E078002804D0112017B0F0BD97
:206860004048FBE71720694601260883002D0FD00321684601711021018210A8024605907D
:2068800004A928460AF04DFD00280DD00720E5E708216846017100210781C94341810521BB
:2068A0008673C90281810CE0A878A0712888A080684605218673C902818100210781C943D6
:2068C000418109AA023206A901A807F0E4F8002802D000F06BFAC1E707A800906846038B72
:2068E00004220321149800F051FB0028B6D1E670B4E770B592B00D0006460ED000F043FAFB
:2069000004000CD0032000F02BFB022802D2E078002806D0112012B070BD1020FBE711487F
:20692000F9E717216846818004210172298881816988C181012181740B4901820AAA02323C
:2069400001A902A807F0A7F800280FD000F02EFAE1E7000058000020346500003C04000015
:2069600063020000023000000228000008A800906846838804220321304600F007FB002883
:20698000C9D10221E170C6E770B592B00D0006460DD000F0F8F904000BD0032000F0E0FAF2
:2069A000022802D2E078002805D01120B3E71020B1E7FA48AFE7172168468180042101729A
:2069C000298881816988C18101218174F44901820AAA023201A902A807F05DF8002802D078
:2069E00000F0E4F997E708A800906846838804220321304600F0CAFA00288CD10321E170E5
:206A000089E770B592B00D0006460DD000F0BBF904000BD0032000F0A3FA022802D2E078E0
:206A2000002805D0112076E7102074E7DB4872E7022168460172298881816988C181172162
:206A400081800AAA023201A902A807F024F8002802D000F0ABF95EE708A80090684683881A
:206A600004220321304600F091FA0028DBD10421E17050E7F0B591B015000E4607460ED0E0
:206A800000F081F904000CD0032000F069FA022802D2E078002806D0112011B0F0BD102013
:206AA000FBE7BE48F9E717216846818004210172298881816988C181B1788174318801824F
:206AC0000AAA023201A902A806F0E5FF002802D000F06CF9E1E708A800906846838804226A
:206AE0000321384600F052FA0028D6D10521E170D3E7F7B592B015460E46129800F043F945
:206B000004000AD0032000F02BFA022802D2E078002804D0112015B0F0BDA048FBE7062773
:206B2000002D12D0684607728681C581A5801720694688800AAA023201A902A806F0ABFFE3
:206B4000002807D000F032F9E5E70521684601728681EBE708A800906846838804220321EC
:206B6000129800F013FA0028D5D1E770D3E7F7B592B016460D000ED0129800F004F90400BF
:206B80000BD0032000F0ECF9022802D2E078002805D01120BFE71020BDE78048BBE707278C
:206BA0006846077286811721049581800AAA023201A902A806F06FFF002802D000F0F6F85D
:206BC000A9E708A800906846838804220321129800F0DCF900289ED1E7709CE7F3B5172023
:206BE00091B00C46002915D021780B000EF0E2FA062B05051A041C2B1520C01EE28880B227
:206C0000002A02D0A368002B04D0824204D90C2013B0F0BD1020FBE7042905D0A0880028CD
:206C200011D101E00620F3E7119800F0ACF805000BD02078092701281AD0022807D004286C
:206C400024D0052835D00720E2E75448E0E76846077161880181E1884181A0680826039036
:206C6000304600F07DF9072829D34C48801CCFE70C216846017161880181E1884181A0683C
:206C800003900EE0E878002811D118E00D216846017161880181A1884181E1888181A068FA
:206CA00004900326304600F05BF90228EAD31120AEE70E2168460171217B0172F1E7172142
:206CC0006846018309AA023206A901A806F0E3FE002802D000F06AF89AE707A800906846B2
:206CE000038B04223146119800F050F900288FD12178012907D002298AD0042905D00529B0
:206D000005D0032084E7082102E0EF7080E70A21E9707DE730B591B00C46054600F033F879
:206D2000002808D0032000F01BF9022805D31B48801C11B030BD1948FBE70F2168460171EA
:206D400004811721018309AA023206A901A806F0A2FE002802D000F029F8EAE707A8009002
:206D60006846038B04220321284600F00FF9E0E70C49884205D00C490988814201D10A489F
:206D800070470020704710B5FFF7F2FF002802D08178C90700D1002010BD00000230000006
:206DA00003280000FFFF000058000020002806D0012805D0052805D0062805D00320704757
:206DC00011207047082070475C487047FFB583B003980C9EC0781D4614460F46012803D01F
:206DE0005749D2200EF0F5F8F889C0000E30288030203080387B001FC0B20190002C26D0F8
:206E000078680088A0800020E0802081F889A081002616E0F0000519C01900902A4641697A
:206E20000E3201980AF057FA002802D000202874E8810098761C008A68820098B6B2408AA7
:206E4000A882A089B042E5D803990020C870F1E4F8B50646C0781F4614460D46042804D024
:206E6000FF20374903300EF0B4F8A889062148430E30388033210698002C01801AD0686864
:206E80000088A0800020E0802081A989A18103460CE01946062251434A190919D789CF8150
:206EA000977C8F74128A5B1C0A829BB2A1899942EFD8F070F8BD70B5144605461422049853
:206EC0001A8037220280002C18D0486800260088A080487AFF300130E080C8892081C889E6
:206EE000A0816682E878082809D0092811D00A2819D0134913480EF06CF8EE7070BD087BCC
:206F00000C2804D00F480E490C380EF062F8012012E0087B0D2804D00A48094908380EF09E
:206F200058F8042008E0087B0E2804D005480449001F0EF04EF80520A073DEE7033000003B
:206F4000346500008203000001460020FA4A02E0401C082803D24300D35A8B42F8D1704768
:206F600030B50446F44A0020163A117953790AE05518AD79A54201D1401CC0B2491CC9B2FA
:206F8000102900D100218B42F2D130BDFFB5EA4881B0163841790A9C491CCDB21E46102DFF
:206FA00000D10025E44816380079A84202D1042005B0F0BD0820FFF7D3FF0746072804D95C
:206FC000FF20DEA1A5300EF004F80298082801D1072F17D001982080301D60800020607134
:206FE0002071E68003982081204606F005FD00280AD0D148029916384379821D99544571FE
:207000000020D5E7D248D3E7FF20CCA1B7300DF0E0FF0320CCE7F0B58DB00446002568469C
:20702000057116468C460620FFF79AFF00281CD121780127C807002801D0132917D968467F
:2070400087766178C17602218183C58304A8009070680C23008805220621FFF797FF0028E7
:2070600003D0B6A185200DF0B4FF0DB0F0BDB24816380278002AF8D0427863789A42F4D13D
:20708000012918D0132919D16146062916D10570002101200AF04EFE684607717068018877
:2070A0006846C1800021C9430181607922790102114368461AE06146062908D068460079EA
:2070C0000028D2D0314601A8FDF7AFFECDE70570002101200AF02EFE6846077160792279FA
:2070E00001021143684601810021C9434181E9E7914810B50021163801704A1E42804170F1
:207100000171417101200AF015FE10BD10B5FFF7EFFF0020884902464300401CCA52082883
:20712000FAD310BD84491639488000207047DFE770470EB501216846017086498180C18068
:207140000021FDF772FE0EBDF7B505460078002700090C463E46012804D0FF2077A168309E
